{
  "_format": "hh-sol-artifact-1",
  "contractName": "BorrowYourCar",
  "sourceName": "contracts/BorrowYourCar.sol",
  "abi": [
    {
      "inputs": [],
      "stateMutability": "nonpayable",
      "type": "constructor"
    },
    {
      "inputs": [
        {
          "internalType": "address",
          "name": "sender",
          "type": "address"
        },
        {
          "internalType": "uint256",
          "name": "tokenId",
          "type": "uint256"
        },
        {
          "internalType": "address",
          "name": "owner",
          "type": "address"
        }
      ],
      "name": "ERC721IncorrectOwner",
      "type": "error"
    },
    {
      "inputs": [
        {
          "internalType": "address",
          "name": "operator",
          "type": "address"
        },
        {
          "internalType": "uint256",
          "name": "tokenId",
          "type": "uint256"
        }
      ],
      "name": "ERC721InsufficientApproval",
      "type": "error"
    },
    {
      "inputs": [
        {
          "internalType": "address",
          "name": "approver",
          "type": "address"
        }
      ],
      "name": "ERC721InvalidApprover",
      "type": "error"
    },
    {
      "inputs": [
        {
          "internalType": "address",
          "name": "operator",
          "type": "address"
        }
      ],
      "name": "ERC721InvalidOperator",
      "type": "error"
    },
    {
      "inputs": [
        {
          "internalType": "address",
          "name": "owner",
          "type": "address"
        }
      ],
      "name": "ERC721InvalidOwner",
      "type": "error"
    },
    {
      "inputs": [
        {
          "internalType": "address",
          "name": "receiver",
          "type": "address"
        }
      ],
      "name": "ERC721InvalidReceiver",
      "type": "error"
    },
    {
      "inputs": [
        {
          "internalType": "address",
          "name": "sender",
          "type": "address"
        }
      ],
      "name": "ERC721InvalidSender",
      "type": "error"
    },
    {
      "inputs": [
        {
          "internalType": "uint256",
          "name": "tokenId",
          "type": "uint256"
        }
      ],
      "name": "ERC721NonexistentToken",
      "type": "error"
    },
    {
      "anonymous": false,
      "inputs": [
        {
          "indexed": true,
          "internalType": "address",
          "name": "owner",
          "type": "address"
        },
        {
          "indexed": true,
          "internalType": "address",
          "name": "approved",
          "type": "address"
        },
        {
          "indexed": true,
          "internalType": "uint256",
          "name": "tokenId",
          "type": "uint256"
        }
      ],
      "name": "Approval",
      "type": "event"
    },
    {
      "anonymous": false,
      "inputs": [
        {
          "indexed": true,
          "internalType": "address",
          "name": "owner",
          "type": "address"
        },
        {
          "indexed": true,
          "internalType": "address",
          "name": "operator",
          "type": "address"
        },
        {
          "indexed": false,
          "internalType": "bool",
          "name": "approved",
          "type": "bool"
        }
      ],
      "name": "ApprovalForAll",
      "type": "event"
    },
    {
      "anonymous": false,
      "inputs": [
        {
          "indexed": false,
          "internalType": "uint256",
          "name": "carTokenId",
          "type": "uint256"
        },
        {
          "indexed": false,
          "internalType": "address",
          "name": "borrower",
          "type": "address"
        },
        {
          "indexed": false,
          "internalType": "uint256",
          "name": "startTime",
          "type": "uint256"
        },
        {
          "indexed": false,
          "internalType": "uint256",
          "name": "duration",
          "type": "uint256"
        }
      ],
      "name": "CarBorrowed",
      "type": "event"
    },
    {
      "anonymous": false,
      "inputs": [
        {
          "indexed": true,
          "internalType": "address",
          "name": "from",
          "type": "address"
        },
        {
          "indexed": true,
          "internalType": "address",
          "name": "to",
          "type": "address"
        },
        {
          "indexed": true,
          "internalType": "uint256",
          "name": "tokenId",
          "type": "uint256"
        }
      ],
      "name": "Transfer",
      "type": "event"
    },
    {
      "inputs": [
        {
          "internalType": "address",
          "name": "to",
          "type": "address"
        },
        {
          "internalType": "uint256",
          "name": "tokenId",
          "type": "uint256"
        }
      ],
      "name": "approve",
      "outputs": [],
      "stateMutability": "nonpayable",
      "type": "function"
    },
    {
      "inputs": [
        {
          "internalType": "address",
          "name": "owner",
          "type": "address"
        }
      ],
      "name": "balanceOf",
      "outputs": [
        {
          "internalType": "uint256",
          "name": "",
          "type": "uint256"
        }
      ],
      "stateMutability": "view",
      "type": "function"
    },
    {
      "inputs": [
        {
          "internalType": "uint256",
          "name": "carTokenId",
          "type": "uint256"
        },
        {
          "internalType": "uint256",
          "name": "duration",
          "type": "uint256"
        }
      ],
      "name": "borrowCar",
      "outputs": [],
      "stateMutability": "nonpayable",
      "type": "function"
    },
    {
      "inputs": [
        {
          "internalType": "uint256",
          "name": "",
          "type": "uint256"
        }
      ],
      "name": "cars",
      "outputs": [
        {
          "internalType": "address",
          "name": "owner",
          "type": "address"
        },
        {
          "internalType": "address",
          "name": "borrower",
          "type": "address"
        },
        {
          "internalType": "uint256",
          "name": "borrowUntil",
          "type": "uint256"
        }
      ],
      "stateMutability": "view",
      "type": "function"
    },
    {
      "inputs": [
        {
          "internalType": "uint256",
          "name": "tokenId",
          "type": "uint256"
        }
      ],
      "name": "getApproved",
      "outputs": [
        {
          "internalType": "address",
          "name": "",
          "type": "address"
        }
      ],
      "stateMutability": "view",
      "type": "function"
    },
    {
      "inputs": [],
      "name": "getAvailableCars",
      "outputs": [
        {
          "internalType": "uint256[]",
          "name": "",
          "type": "uint256[]"
        }
      ],
      "stateMutability": "view",
      "type": "function"
    },
    {
      "inputs": [
        {
          "internalType": "uint256",
          "name": "carId",
          "type": "uint256"
        }
      ],
      "name": "getBorrower",
      "outputs": [
        {
          "internalType": "address",
          "name": "",
          "type": "address"
        }
      ],
      "stateMutability": "view",
      "type": "function"
    },
    {
      "inputs": [],
      "name": "getOwnedCars",
      "outputs": [
        {
          "internalType": "uint256[]",
          "name": "",
          "type": "uint256[]"
        }
      ],
      "stateMutability": "view",
      "type": "function"
    },
    {
      "inputs": [
        {
          "internalType": "uint256",
          "name": "carId",
          "type": "uint256"
        }
      ],
      "name": "getOwner",
      "outputs": [
        {
          "internalType": "address",
          "name": "",
          "type": "address"
        }
      ],
      "stateMutability": "view",
      "type": "function"
    },
    {
      "inputs": [
        {
          "internalType": "address",
          "name": "owner",
          "type": "address"
        },
        {
          "internalType": "address",
          "name": "operator",
          "type": "address"
        }
      ],
      "name": "isApprovedForAll",
      "outputs": [
        {
          "internalType": "bool",
          "name": "",
          "type": "bool"
        }
      ],
      "stateMutability": "view",
      "type": "function"
    },
    {
      "inputs": [],
      "name": "mintCar",
      "outputs": [],
      "stateMutability": "nonpayable",
      "type": "function"
    },
    {
      "inputs": [],
      "name": "name",
      "outputs": [
        {
          "internalType": "string",
          "name": "",
          "type": "string"
        }
      ],
      "stateMutability": "view",
      "type": "function"
    },
    {
      "inputs": [
        {
          "internalType": "uint256",
          "name": "tokenId",
          "type": "uint256"
        }
      ],
      "name": "ownerOf",
      "outputs": [
        {
          "internalType": "address",
          "name": "",
          "type": "address"
        }
      ],
      "stateMutability": "view",
      "type": "function"
    },
    {
      "inputs": [
        {
          "internalType": "address",
          "name": "from",
          "type": "address"
        },
        {
          "internalType": "address",
          "name": "to",
          "type": "address"
        },
        {
          "internalType": "uint256",
          "name": "tokenId",
          "type": "uint256"
        }
      ],
      "name": "safeTransferFrom",
      "outputs": [],
      "stateMutability": "nonpayable",
      "type": "function"
    },
    {
      "inputs": [
        {
          "internalType": "address",
          "name": "from",
          "type": "address"
        },
        {
          "internalType": "address",
          "name": "to",
          "type": "address"
        },
        {
          "internalType": "uint256",
          "name": "tokenId",
          "type": "uint256"
        },
        {
          "internalType": "bytes",
          "name": "data",
          "type": "bytes"
        }
      ],
      "name": "safeTransferFrom",
      "outputs": [],
      "stateMutability": "nonpayable",
      "type": "function"
    },
    {
      "inputs": [
        {
          "internalType": "address",
          "name": "operator",
          "type": "address"
        },
        {
          "internalType": "bool",
          "name": "approved",
          "type": "bool"
        }
      ],
      "name": "setApprovalForAll",
      "outputs": [],
      "stateMutability": "nonpayable",
      "type": "function"
    },
    {
      "inputs": [
        {
          "internalType": "bytes4",
          "name": "interfaceId",
          "type": "bytes4"
        }
      ],
      "name": "supportsInterface",
      "outputs": [
        {
          "internalType": "bool",
          "name": "",
          "type": "bool"
        }
      ],
      "stateMutability": "view",
      "type": "function"
    },
    {
      "inputs": [],
      "name": "symbol",
      "outputs": [
        {
          "internalType": "string",
          "name": "",
          "type": "string"
        }
      ],
      "stateMutability": "view",
      "type": "function"
    },
    {
      "inputs": [],
      "name": "tapWaterCoin",
      "outputs": [
        {
          "internalType": "contract TapWaterCoin",
          "name": "",
          "type": "address"
        }
      ],
      "stateMutability": "view",
      "type": "function"
    },
    {
      "inputs": [
        {
          "internalType": "uint256",
          "name": "tokenId",
          "type": "uint256"
        }
      ],
      "name": "tokenURI",
      "outputs": [
        {
          "internalType": "string",
          "name": "",
          "type": "string"
        }
      ],
      "stateMutability": "view",
      "type": "function"
    },
    {
      "inputs": [
        {
          "internalType": "address",
          "name": "from",
          "type": "address"
        },
        {
          "internalType": "address",
          "name": "to",
          "type": "address"
        },
        {
          "internalType": "uint256",
          "name": "tokenId",
          "type": "uint256"
        }
      ],
      "name": "transferFrom",
      "outputs": [],
      "stateMutability": "nonpayable",
      "type": "function"
    },
    {
      "inputs": [],
      "name": "update",
      "outputs": [],
      "stateMutability": "nonpayable",
      "type": "function"
    }
  ],
  "bytecode": "0x608060405260006008553480156200001657600080fd5b506040518060400160405280600d81526020017f426f72726f77596f7572436172000000000000000000000000000000000000008152506040518060400160405280600381526020017f42594300000000000000000000000000000000000000000000000000000000008152508160009081620000949190620003ae565b508060019081620000a69190620003ae565b505050604051620000b79062000126565b620000c29062000546565b604051809103906000f080158015620000df573d6000803e3d6000fd5b50600960006101000a81548173ffffffffffffffffffffffffffffffffffffffff021916908373ffffffffffffffffffffffffffffffffffffffff1602179055506200057d565b611639806200330783390190565b600081519050919050565b7f4e487b7100000000000000000000000000000000000000000000000000000000600052604160045260246000fd5b7f4e487b7100000000000000000000000000000000000000000000000000000000600052602260045260246000fd5b60006002820490506001821680620001b657607f821691505b602082108103620001cc57620001cb6200016e565b5b50919050565b60008190508160005260206000209050919050565b60006020601f8301049050919050565b600082821b905092915050565b600060088302620002367fffffffffffffffffffffffffffffffffffffffffffffffffffffffffffffffff82620001f7565b620002428683620001f7565b95508019841693508086168417925050509392505050565b6000819050919050565b6000819050919050565b60006200028f6200028962000283846200025a565b62000264565b6200025a565b9050919050565b6000819050919050565b620002ab836200026e565b620002c3620002ba8262000296565b84845462000204565b825550505050565b600090565b620002da620002cb565b620002e7818484620002a0565b505050565b5b818110156200030f5762000303600082620002d0565b600181019050620002ed565b5050565b601f8211156200035e576200032881620001d2565b6200033384620001e7565b8101602085101562000343578190505b6200035b6200035285620001e7565b830182620002ec565b50505b505050565b600082821c905092915050565b6000620003836000198460080262000363565b1980831691505092915050565b60006200039e838362000370565b9150826002028217905092915050565b620003b98262000134565b67ffffffffffffffff811115620003d557620003d46200013f565b5b620003e182546200019d565b620003ee82828562000313565b600060209050601f83116001811462000426576000841562000411578287015190505b6200041d858262000390565b8655506200048d565b601f1984166200043686620001d2565b60005b82811015620004605784890151825560018201915060208501945060208101905062000439565b868310156200048057848901516200047c601f89168262000370565b8355505b6001600288020188555050505b505050505050565b600082825260208201905092915050565b7f5461705761746572436f696e0000000000000000000000000000000000000000600082015250565b6000620004de600c8362000495565b9150620004eb82620004a6565b602082019050919050565b7f5457430000000000000000000000000000000000000000000000000000000000600082015250565b60006200052e60038362000495565b91506200053b82620004f6565b602082019050919050565b600060408201905081810360008301526200056181620004cf565b9050818103602083015262000576816200051f565b9050919050565b612d7a806200058d6000396000f3fe608060405234801561001057600080fd5b50600436106101425760003560e01c80639183e2af116100b8578063b88d4fde1161007c578063b88d4fde14610351578063c41a360a1461036d578063c87b56dd1461039d578063e865af04146103cd578063e985e9c5146103e9578063f7746e361461041957610142565b80639183e2af146102d157806395d89b41146102ef578063a22cb4651461030d578063a2e6204514610329578063a5adf8ea1461033357610142565b80633a7bb4b21161010a5780633a7bb4b2146101fd57806342842e0e14610207578063433b8046146102235780636352211e1461024157806370a08231146102715780638500d919146102a157610142565b806301ffc9a71461014757806306fdde0314610177578063081812fc14610195578063095ea7b3146101c557806323b872dd146101e1575b600080fd5b610161600480360381019061015c91906120db565b61044b565b60405161016e9190612123565b60405180910390f35b61017f61052d565b60405161018c91906121ce565b60405180910390f35b6101af60048036038101906101aa9190612226565b6105bf565b6040516101bc9190612294565b60405180910390f35b6101df60048036038101906101da91906122db565b6105db565b005b6101fb60048036038101906101f6919061231b565b6105f1565b005b6102056106f3565b005b610221600480360381019061021c919061231b565b610888565b005b61022b6108a8565b604051610238919061242c565b60405180910390f35b61025b60048036038101906102569190612226565b610a60565b6040516102689190612294565b60405180910390f35b61028b6004803603810190610286919061244e565b610a72565b604051610298919061248a565b60405180910390f35b6102bb60048036038101906102b69190612226565b610b2c565b6040516102c89190612294565b60405180910390f35b6102d9610b87565b6040516102e69190612504565b60405180910390f35b6102f7610bad565b60405161030491906121ce565b60405180910390f35b6103276004803603810190610322919061254b565b610c3f565b005b610331610c55565b005b61033b610cf6565b604051610348919061242c565b60405180910390f35b61036b600480360381019061036691906126c0565b610d8b565b005b61038760048036038101906103829190612226565b610da8565b6040516103949190612294565b60405180910390f35b6103b760048036038101906103b29190612226565b610ded565b6040516103c491906121ce565b60405180910390f35b6103e760048036038101906103e29190612743565b610e56565b005b61040360048036038101906103fe9190612783565b6111f6565b6040516104109190612123565b60405180910390f35b610433600480360381019061042e9190612226565b61128a565b604051610442939291906127c3565b60405180910390f35b60007f80ac58cd000000000000000000000000000000000000000000000000000000007bffffffffffffffffffffffffffffffffffffffffffffffffffffffff1916827bffffffffffffffffffffffffffffffffffffffffffffffffffffffff1916148061051657507f5b5e139f000000000000000000000000000000000000000000000000000000007bffffffffffffffffffffffffffffffffffffffffffffffffffffffff1916827bffffffffffffffffffffffffffffffffffffffffffffffffffffffff1916145b806105265750610525826112f4565b5b9050919050565b60606000805461053c90612829565b80601f016020809104026020016040519081016040528092919081815260200182805461056890612829565b80156105b55780601f1061058a576101008083540402835291602001916105b5565b820191906000526020600020905b81548152906001019060200180831161059857829003601f168201915b5050505050905090565b60006105ca8261135e565b506105d4826113e6565b9050919050565b6105ed82826105e8611423565b61142b565b5050565b600073ffffffffffffffffffffffffffffffffffffffff168273ffffffffffffffffffffffffffffffffffffffff16036106635760006040517f64a0ae9200000000000000000000000000000000000000000000000000000000815260040161065a9190612294565b60405180910390fd5b60006106778383610672611423565b61143d565b90508373ffffffffffffffffffffffffffffffffffffffff168173ffffffffffffffffffffffffffffffffffffffff16146106ed578382826040517f64283d7b0000000000000000000000000000000000000000000000000000000081526004016106e49392919061285a565b60405180910390fd5b50505050565b6000600160085461070491906128c0565b90506107103382611657565b60405180606001604052803373ffffffffffffffffffffffffffffffffffffffff168152602001600073ffffffffffffffffffffffffffffffffffffffff16815260200160008152506006600083815260200190815260200160002060008201518160000160006101000a81548173ffffffffffffffffffffffffffffffffffffffff021916908373ffffffffffffffffffffffffffffffffffffffff16021790555060208201518160010160006101000a81548173ffffffffffffffffffffffffffffffffffffffff021916908373ffffffffffffffffffffffffffffffffffffffff16021790555060408201518160020155905050600760003373ffffffffffffffffffffffffffffffffffffffff1673ffffffffffffffffffffffffffffffffffffffff16815260200190815260200160002081908060018154018082558091505060019003906000526020600020016000909190919091505560086000815480929190610880906128f4565b919050555050565b6108a383838360405180602001604052806000815250610d8b565b505050565b606060006008549050600080600190505b82811161094c57600073ffffffffffffffffffffffffffffffffffffffff166006600083815260200190815260200160002060010160009054906101000a900473ffffffffffffffffffffffffffffffffffffffff1673ffffffffffffffffffffffffffffffffffffffff1603610939578180610935906128f4565b9250505b8080610944906128f4565b9150506108b9565b5060008167ffffffffffffffff81111561096957610968612595565b5b6040519080825280602002602001820160405280156109975781602001602082028036833780820191505090505b509050600080600190505b848111610a5557600073ffffffffffffffffffffffffffffffffffffffff166006600083815260200190815260200160002060010160009054906101000a900473ffffffffffffffffffffffffffffffffffffffff1673ffffffffffffffffffffffffffffffffffffffff1603610a425780838381518110610a2757610a2661293c565b5b6020026020010181815250508180610a3e906128f4565b9250505b8080610a4d906128f4565b9150506109a2565b508194505050505090565b6000610a6b8261135e565b9050919050565b60008073ffffffffffffffffffffffffffffffffffffffff168273ffffffffffffffffffffffffffffffffffffffff1603610ae55760006040517f89c62b64000000000000000000000000000000000000000000000000000000008152600401610adc9190612294565b60405180910390fd5b600360008373ffffffffffffffffffffffffffffffffffffffff1673ffffffffffffffffffffffffffffffffffffffff168152602001908152602001600020549050919050565b60008060066000848152602001908152602001600020905042816002015410610b7c578060010160009054906101000a900473ffffffffffffffffffffffffffffffffffffffff16915050610b82565b60009150505b919050565b600960009054906101000a900473ffffffffffffffffffffffffffffffffffffffff1681565b606060018054610bbc90612829565b80601f0160208091040260200160405190810160405280929190818152602001828054610be890612829565b8015610c355780601f10610c0a57610100808354040283529160200191610c35565b820191906000526020600020905b815481529060010190602001808311610c1857829003601f168201915b5050505050905090565b610c51610c4a611423565b8383611675565b5050565b600060085490506000600190505b818111610cf2574260066000838152602001908152602001600020600201541015610cdf5760006006600083815260200190815260200160002060010160006101000a81548173ffffffffffffffffffffffffffffffffffffffff021916908373ffffffffffffffffffffffffffffffffffffffff1602179055505b8080610cea906128f4565b915050610c63565b5050565b6060600760003373ffffffffffffffffffffffffffffffffffffffff1673ffffffffffffffffffffffffffffffffffffffff168152602001908152602001600020805480602002602001604051908101604052809291908181526020018280548015610d8157602002820191906000526020600020905b815481526020019060010190808311610d6d575b5050505050905090565b610d968484846105f1565b610da2848484846117e4565b50505050565b6000806006600084815260200190815260200160002090508060000160009054906101000a900473ffffffffffffffffffffffffffffffffffffffff16915050919050565b6060610df88261135e565b506000610e0361199b565b90506000815111610e235760405180602001604052806000815250610e4e565b80610e2d846119b2565b604051602001610e3e9291906129a7565b6040516020818303038152906040525b915050919050565b3373ffffffffffffffffffffffffffffffffffffffff16610e7683610a60565b73ffffffffffffffffffffffffffffffffffffffff1603610ecc576040517f08c379a0000000000000000000000000000000000000000000000000000000008152600401610ec390612a17565b60405180910390fd5b600073ffffffffffffffffffffffffffffffffffffffff166006600084815260200190815260200160002060010160009054906101000a900473ffffffffffffffffffffffffffffffffffffffff1673ffffffffffffffffffffffffffffffffffffffff1614610f71576040517f08c379a0000000000000000000000000000000000000000000000000000000008152600401610f6890612a83565b60405180910390fd5b6000603c82610f809190612ad2565b905080600960009054906101000a900473ffffffffffffffffffffffffffffffffffffffff1673ffffffffffffffffffffffffffffffffffffffff166370a08231336040518263ffffffff1660e01b8152600401610fde9190612294565b602060405180830381865afa158015610ffb573d6000803e3d6000fd5b505050506040513d601f19601f8201168201806040525081019061101f9190612b18565b1015611060576040517f08c379a000000000000000000000000000000000000000000000000000000000815260040161105790612b91565b60405180910390fd5b600960009054906101000a900473ffffffffffffffffffffffffffffffffffffffff1673ffffffffffffffffffffffffffffffffffffffff166323b872dd336006600087815260200190815260200160002060000160009054906101000a900473ffffffffffffffffffffffffffffffffffffffff16846040518463ffffffff1660e01b81526004016110f5939291906127c3565b6020604051808303816000875af1158015611114573d6000803e3d6000fd5b505050506040513d601f19601f820116820180604052508101906111389190612bc6565b50336006600085815260200190815260200160002060010160006101000a81548173ffffffffffffffffffffffffffffffffffffffff021916908373ffffffffffffffffffffffffffffffffffffffff160217905550814261119a91906128c0565b60066000858152602001908152602001600020600201819055507f8879d78706834dc00d82232992f71250fab6a1f70b08260968253950083d88cd833342856040516111e99493929190612bf3565b60405180910390a1505050565b6000600560008473ffffffffffffffffffffffffffffffffffffffff1673ffffffffffffffffffffffffffffffffffffffff16815260200190815260200160002060008373ffffffffffffffffffffffffffffffffffffffff1673ffffffffffffffffffffffffffffffffffffffff16815260200190815260200160002060009054906101000a900460ff16905092915050565b60066020528060005260406000206000915090508060000160009054906101000a900473ffffffffffffffffffffffffffffffffffffffff16908060010160009054906101000a900473ffffffffffffffffffffffffffffffffffffffff16908060020154905083565b60007f01ffc9a7000000000000000000000000000000000000000000000000000000007bffffffffffffffffffffffffffffffffffffffffffffffffffffffff1916827bffffffffffffffffffffffffffffffffffffffffffffffffffffffff1916149050919050565b60008061136a83611a80565b9050600073ffffffffffffffffffffffffffffffffffffffff168173ffffffffffffffffffffffffffffffffffffffff16036113dd57826040517f7e2732890000000000000000000000000000000000000000000000000000000081526004016113d4919061248a565b60405180910390fd5b80915050919050565b60006004600083815260200190815260200160002060009054906101000a900473ffffffffffffffffffffffffffffffffffffffff169050919050565b600033905090565b6114388383836001611abd565b505050565b60008061144984611a80565b9050600073ffffffffffffffffffffffffffffffffffffffff168373ffffffffffffffffffffffffffffffffffffffff161461148b5761148a818486611c82565b5b600073ffffffffffffffffffffffffffffffffffffffff168173ffffffffffffffffffffffffffffffffffffffff161461151c576114cd600085600080611abd565b6001600360008373ffffffffffffffffffffffffffffffffffffffff1673ffffffffffffffffffffffffffffffffffffffff168152602001908152602001600020600082825403925050819055505b600073ffffffffffffffffffffffffffffffffffffffff168573ffffffffffffffffffffffffffffffffffffffff161461159f576001600360008773ffffffffffffffffffffffffffffffffffffffff1673ffffffffffffffffffffffffffffffffffffffff168152602001908152602001600020600082825401925050819055505b846002600086815260200190815260200160002060006101000a81548173ffffffffffffffffffffffffffffffffffffffff021916908373ffffffffffffffffffffffffffffffffffffffff160217905550838573ffffffffffffffffffffffffffffffffffffffff168273ffffffffffffffffffffffffffffffffffffffff167fddf252ad1be2c89b69c2b068fc378daa952ba7f163c4a11628f55a4df523b3ef60405160405180910390a4809150509392505050565b611671828260405180602001604052806000815250611d46565b5050565b600073ffffffffffffffffffffffffffffffffffffffff168273ffffffffffffffffffffffffffffffffffffffff16036116e657816040517f5b08ba180000000000000000000000000000000000000000000000000000000081526004016116dd9190612294565b60405180910390fd5b80600560008573ffffffffffffffffffffffffffffffffffffffff1673ffffffffffffffffffffffffffffffffffffffff16815260200190815260200160002060008473ffffffffffffffffffffffffffffffffffffffff1673ffffffffffffffffffffffffffffffffffffffff16815260200190815260200160002060006101000a81548160ff0219169083151502179055508173ffffffffffffffffffffffffffffffffffffffff168373ffffffffffffffffffffffffffffffffffffffff167f17307eab39ab6107e8899845ad3d59bd9653f200f220920489ca2b5937696c31836040516117d79190612123565b60405180910390a3505050565b60008373ffffffffffffffffffffffffffffffffffffffff163b1115611995578273ffffffffffffffffffffffffffffffffffffffff1663150b7a02611828611423565b8685856040518563ffffffff1660e01b815260040161184a9493929190612c8d565b6020604051808303816000875af192505050801561188657506040513d601f19601f820116820180604052508101906118839190612cee565b60015b61190a573d80600081146118b6576040519150601f19603f3d011682016040523d82523d6000602084013e6118bb565b606091505b50600081510361190257836040517f64a0ae920000000000000000000000000000000000000000000000000000000081526004016118f99190612294565b60405180910390fd5b805181602001fd5b63150b7a0260e01b7bffffffffffffffffffffffffffffffffffffffffffffffffffffffff1916817bffffffffffffffffffffffffffffffffffffffffffffffffffffffff19161461199357836040517f64a0ae9200000000000000000000000000000000000000000000000000000000815260040161198a9190612294565b60405180910390fd5b505b50505050565b606060405180602001604052806000815250905090565b6060600060016119c184611d62565b01905060008167ffffffffffffffff8111156119e0576119df612595565b5b6040519080825280601f01601f191660200182016040528015611a125781602001600182028036833780820191505090505b509050600082602001820190505b600115611a75578080600190039150507f3031323334353637383961626364656600000000000000000000000000000000600a86061a8153600a8581611a6957611a68612aa3565b5b04945060008503611a20575b819350505050919050565b60006002600083815260200190815260200160002060009054906101000a900473ffffffffffffffffffffffffffffffffffffffff169050919050565b8080611af65750600073ffffffffffffffffffffffffffffffffffffffff168273ffffffffffffffffffffffffffffffffffffffff1614155b15611c2a576000611b068461135e565b9050600073ffffffffffffffffffffffffffffffffffffffff168373ffffffffffffffffffffffffffffffffffffffff1614158015611b7157508273ffffffffffffffffffffffffffffffffffffffff168173ffffffffffffffffffffffffffffffffffffffff1614155b8015611b845750611b8281846111f6565b155b15611bc657826040517fa9fbf51f000000000000000000000000000000000000000000000000000000008152600401611bbd9190612294565b60405180910390fd5b8115611c2857838573ffffffffffffffffffffffffffffffffffffffff168273ffffffffffffffffffffffffffffffffffffffff167f8c5be1e5ebec7d5bd14f71427d1e84f3dd0314c0f7b2291e5b200ac8c7c3b92560405160405180910390a45b505b836004600085815260200190815260200160002060006101000a81548173ffffffffffffffffffffffffffffffffffffffff021916908373ffffffffffffffffffffffffffffffffffffffff16021790555050505050565b611c8d838383611eb5565b611d4157600073ffffffffffffffffffffffffffffffffffffffff168373ffffffffffffffffffffffffffffffffffffffff1603611d0257806040517f7e273289000000000000000000000000000000000000000000000000000000008152600401611cf9919061248a565b60405180910390fd5b81816040517f177e802f000000000000000000000000000000000000000000000000000000008152600401611d38929190612d1b565b60405180910390fd5b505050565b611d508383611f76565b611d5d60008484846117e4565b505050565b600080600090507a184f03e93ff9f4daa797ed6e38ed64bf6a1f0100000000000000008310611dc0577a184f03e93ff9f4daa797ed6e38ed64bf6a1f0100000000000000008381611db657611db5612aa3565b5b0492506040810190505b6d04ee2d6d415b85acef81000000008310611dfd576d04ee2d6d415b85acef81000000008381611df357611df2612aa3565b5b0492506020810190505b662386f26fc100008310611e2c57662386f26fc100008381611e2257611e21612aa3565b5b0492506010810190505b6305f5e1008310611e55576305f5e1008381611e4b57611e4a612aa3565b5b0492506008810190505b6127108310611e7a576127108381611e7057611e6f612aa3565b5b0492506004810190505b60648310611e9d5760648381611e9357611e92612aa3565b5b0492506002810190505b600a8310611eac576001810190505b80915050919050565b60008073ffffffffffffffffffffffffffffffffffffffff168373ffffffffffffffffffffffffffffffffffffffff1614158015611f6d57508273ffffffffffffffffffffffffffffffffffffffff168473ffffffffffffffffffffffffffffffffffffffff161480611f2e5750611f2d84846111f6565b5b80611f6c57508273ffffffffffffffffffffffffffffffffffffffff16611f54836113e6565b73ffffffffffffffffffffffffffffffffffffffff16145b5b90509392505050565b600073ffffffffffffffffffffffffffffffffffffffff168273ffffffffffffffffffffffffffffffffffffffff1603611fe85760006040517f64a0ae92000000000000000000000000000000000000000000000000000000008152600401611fdf9190612294565b60405180910390fd5b6000611ff68383600061143d565b9050600073ffffffffffffffffffffffffffffffffffffffff168173ffffffffffffffffffffffffffffffffffffffff161461206a5760006040517f73c6ac6e0000000000000000000000000000000000000000000000000000000081526004016120619190612294565b60405180910390fd5b505050565b6000604051905090565b600080fd5b600080fd5b60007fffffffff0000000000000000000000000000000000000000000000000000000082169050919050565b6120b881612083565b81146120c357600080fd5b50565b6000813590506120d5816120af565b92915050565b6000602082840312156120f1576120f0612079565b5b60006120ff848285016120c6565b91505092915050565b60008115159050919050565b61211d81612108565b82525050565b60006020820190506121386000830184612114565b92915050565b600081519050919050565b600082825260208201905092915050565b60005b8381101561217857808201518184015260208101905061215d565b60008484015250505050565b6000601f19601f8301169050919050565b60006121a08261213e565b6121aa8185612149565b93506121ba81856020860161215a565b6121c381612184565b840191505092915050565b600060208201905081810360008301526121e88184612195565b905092915050565b6000819050919050565b612203816121f0565b811461220e57600080fd5b50565b600081359050612220816121fa565b92915050565b60006020828403121561223c5761223b612079565b5b600061224a84828501612211565b91505092915050565b600073ffffffffffffffffffffffffffffffffffffffff82169050919050565b600061227e82612253565b9050919050565b61228e81612273565b82525050565b60006020820190506122a96000830184612285565b92915050565b6122b881612273565b81146122c357600080fd5b50565b6000813590506122d5816122af565b92915050565b600080604083850312156122f2576122f1612079565b5b6000612300858286016122c6565b925050602061231185828601612211565b9150509250929050565b60008060006060848603121561233457612333612079565b5b6000612342868287016122c6565b9350506020612353868287016122c6565b925050604061236486828701612211565b9150509250925092565b600081519050919050565b600082825260208201905092915050565b6000819050602082019050919050565b6123a3816121f0565b82525050565b60006123b5838361239a565b60208301905092915050565b6000602082019050919050565b60006123d98261236e565b6123e38185612379565b93506123ee8361238a565b8060005b8381101561241f57815161240688826123a9565b9750612411836123c1565b9250506001810190506123f2565b5085935050505092915050565b6000602082019050818103600083015261244681846123ce565b905092915050565b60006020828403121561246457612463612079565b5b6000612472848285016122c6565b91505092915050565b612484816121f0565b82525050565b600060208201905061249f600083018461247b565b92915050565b6000819050919050565b60006124ca6124c56124c084612253565b6124a5565b612253565b9050919050565b60006124dc826124af565b9050919050565b60006124ee826124d1565b9050919050565b6124fe816124e3565b82525050565b600060208201905061251960008301846124f5565b92915050565b61252881612108565b811461253357600080fd5b50565b6000813590506125458161251f565b92915050565b6000806040838503121561256257612561612079565b5b6000612570858286016122c6565b925050602061258185828601612536565b9150509250929050565b600080fd5b600080fd5b7f4e487b7100000000000000000000000000000000000000000000000000000000600052604160045260246000fd5b6125cd82612184565b810181811067ffffffffffffffff821117156125ec576125eb612595565b5b80604052505050565b60006125ff61206f565b905061260b82826125c4565b919050565b600067ffffffffffffffff82111561262b5761262a612595565b5b61263482612184565b9050602081019050919050565b82818337600083830152505050565b600061266361265e84612610565b6125f5565b90508281526020810184848401111561267f5761267e612590565b5b61268a848285612641565b509392505050565b600082601f8301126126a7576126a661258b565b5b81356126b7848260208601612650565b91505092915050565b600080600080608085870312156126da576126d9612079565b5b60006126e8878288016122c6565b94505060206126f9878288016122c6565b935050604061270a87828801612211565b925050606085013567ffffffffffffffff81111561272b5761272a61207e565b5b61273787828801612692565b91505092959194509250565b6000806040838503121561275a57612759612079565b5b600061276885828601612211565b925050602061277985828601612211565b9150509250929050565b6000806040838503121561279a57612799612079565b5b60006127a8858286016122c6565b92505060206127b9858286016122c6565b9150509250929050565b60006060820190506127d86000830186612285565b6127e56020830185612285565b6127f2604083018461247b565b949350505050565b7f4e487b7100000000000000000000000000000000000000000000000000000000600052602260045260246000fd5b6000600282049050600182168061284157607f821691505b602082108103612854576128536127fa565b5b50919050565b600060608201905061286f6000830186612285565b61287c602083018561247b565b6128896040830184612285565b949350505050565b7f4e487b7100000000000000000000000000000000000000000000000000000000600052601160045260246000fd5b60006128cb826121f0565b91506128d6836121f0565b92508282019050808211156128ee576128ed612891565b5b92915050565b60006128ff826121f0565b91507fffffffffffffffffffffffffffffffffffffffffffffffffffffffffffffffff820361293157612930612891565b5b600182019050919050565b7f4e487b7100000000000000000000000000000000000000000000000000000000600052603260045260246000fd5b600081905092915050565b60006129818261213e565b61298b818561296b565b935061299b81856020860161215a565b80840191505092915050565b60006129b38285612976565b91506129bf8284612976565b91508190509392505050565b7f596f752063616e6e6f7420626f72726f7720796f7572206f776e206361720000600082015250565b6000612a01601e83612149565b9150612a0c826129cb565b602082019050919050565b60006020820190508181036000830152612a30816129f4565b9050919050565b7f43617220697320616c726561647920626f72726f776564000000000000000000600082015250565b6000612a6d601783612149565b9150612a7882612a37565b602082019050919050565b60006020820190508181036000830152612a9c81612a60565b9050919050565b7f4e487b7100000000000000000000000000000000000000000000000000000000600052601260045260246000fd5b6000612add826121f0565b9150612ae8836121f0565b925082612af857612af7612aa3565b5b828204905092915050565b600081519050612b12816121fa565b92915050565b600060208284031215612b2e57612b2d612079565b5b6000612b3c84828501612b03565b91505092915050565b7f496e73756666696369656e742062616c616e6365000000000000000000000000600082015250565b6000612b7b601483612149565b9150612b8682612b45565b602082019050919050565b60006020820190508181036000830152612baa81612b6e565b9050919050565b600081519050612bc08161251f565b92915050565b600060208284031215612bdc57612bdb612079565b5b6000612bea84828501612bb1565b91505092915050565b6000608082019050612c08600083018761247b565b612c156020830186612285565b612c22604083018561247b565b612c2f606083018461247b565b95945050505050565b600081519050919050565b600082825260208201905092915050565b6000612c5f82612c38565b612c698185612c43565b9350612c7981856020860161215a565b612c8281612184565b840191505092915050565b6000608082019050612ca26000830187612285565b612caf6020830186612285565b612cbc604083018561247b565b8181036060830152612cce8184612c54565b905095945050505050565b600081519050612ce8816120af565b92915050565b600060208284031215612d0457612d03612079565b5b6000612d1284828501612cd9565b91505092915050565b6000604082019050612d306000830185612285565b612d3d602083018461247b565b939250505056fea2646970667358221220e4db651805bbc4ac2b640f099e31350de83ec97681ff8fc141e55d4efb803ae864736f6c6343000814003360806040523480156200001157600080fd5b5060405162001639380380620016398339818101604052810190620000379190620001fa565b818181600390816200004a9190620004ca565b5080600490816200005c9190620004ca565b5050505050620005b1565b6000604051905090565b600080fd5b600080fd5b600080fd5b600080fd5b6000601f19601f8301169050919050565b7f4e487b7100000000000000000000000000000000000000000000000000000000600052604160045260246000fd5b620000d08262000085565b810181811067ffffffffffffffff82111715620000f257620000f162000096565b5b80604052505050565b60006200010762000067565b9050620001158282620000c5565b919050565b600067ffffffffffffffff82111562000138576200013762000096565b5b620001438262000085565b9050602081019050919050565b60005b838110156200017057808201518184015260208101905062000153565b60008484015250505050565b6000620001936200018d846200011a565b620000fb565b905082815260208101848484011115620001b257620001b162000080565b5b620001bf84828562000150565b509392505050565b600082601f830112620001df57620001de6200007b565b5b8151620001f18482602086016200017c565b91505092915050565b6000806040838503121562000214576200021362000071565b5b600083015167ffffffffffffffff81111562000235576200023462000076565b5b6200024385828601620001c7565b925050602083015167ffffffffffffffff81111562000267576200026662000076565b5b6200027585828601620001c7565b9150509250929050565b600081519050919050565b7f4e487b7100000000000000000000000000000000000000000000000000000000600052602260045260246000fd5b60006002820490506001821680620002d257607f821691505b602082108103620002e857620002e76200028a565b5b50919050565b60008190508160005260206000209050919050565b60006020601f8301049050919050565b600082821b905092915050565b600060088302620003527fffffffffffffffffffffffffffffffffffffffffffffffffffffffffffffffff8262000313565b6200035e868362000313565b95508019841693508086168417925050509392505050565b6000819050919050565b6000819050919050565b6000620003ab620003a56200039f8462000376565b62000380565b62000376565b9050919050565b6000819050919050565b620003c7836200038a565b620003df620003d682620003b2565b84845462000320565b825550505050565b600090565b620003f6620003e7565b62000403818484620003bc565b505050565b5b818110156200042b576200041f600082620003ec565b60018101905062000409565b5050565b601f8211156200047a576200044481620002ee565b6200044f8462000303565b810160208510156200045f578190505b620004776200046e8562000303565b83018262000408565b50505b505050565b600082821c905092915050565b60006200049f600019846008026200047f565b1980831691505092915050565b6000620004ba83836200048c565b9150826002028217905092915050565b620004d5826200027f565b67ffffffffffffffff811115620004f157620004f062000096565b5b620004fd8254620002b9565b6200050a8282856200042f565b600060209050601f8311600181146200054257600084156200052d578287015190505b620005398582620004ac565b865550620005a9565b601f1984166200055286620002ee565b60005b828110156200057c5784890151825560018201915060208501945060208101905062000555565b868310156200059c578489015162000598601f8916826200048c565b8355505b6001600288020188555050505b505050505050565b61107880620005c16000396000f3fe608060405234801561001057600080fd5b506004361061009e5760003560e01c80633884d635116100665780633884d6351461015d57806370a082311461016757806395d89b4114610197578063a9059cbb146101b5578063dd62ed3e146101e55761009e565b806306fdde03146100a3578063095ea7b3146100c157806318160ddd146100f157806323b872dd1461010f578063313ce5671461013f575b600080fd5b6100ab610215565b6040516100b89190610c3a565b60405180910390f35b6100db60048036038101906100d69190610cf5565b6102a7565b6040516100e89190610d50565b60405180910390f35b6100f96102ca565b6040516101069190610d7a565b60405180910390f35b61012960048036038101906101249190610d95565b6102d4565b6040516101369190610d50565b60405180910390f35b610147610303565b6040516101549190610e04565b60405180910390f35b61016561030c565b005b610181600480360381019061017c9190610e1f565b610406565b60405161018e9190610d7a565b60405180910390f35b61019f61044e565b6040516101ac9190610c3a565b60405180910390f35b6101cf60048036038101906101ca9190610cf5565b6104e0565b6040516101dc9190610d50565b60405180910390f35b6101ff60048036038101906101fa9190610e4c565b610503565b60405161020c9190610d7a565b60405180910390f35b60606003805461022490610ebb565b80601f016020809104026020016040519081016040528092919081815260200182805461025090610ebb565b801561029d5780601f106102725761010080835404028352916020019161029d565b820191906000526020600020905b81548152906001019060200180831161028057829003601f168201915b5050505050905090565b6000806102b261058a565b90506102bf818585610592565b600191505092915050565b6000600254905090565b6000806102df61058a565b90506102ec8582856105a4565b6102f7858585610638565b60019150509392505050565b60006012905090565b60001515600560003373ffffffffffffffffffffffffffffffffffffffff1673ffffffffffffffffffffffffffffffffffffffff16815260200190815260200160002060009054906101000a900460ff1615151461039f576040517f08c379a000000000000000000000000000000000000000000000000000000000815260040161039690610f5e565b60405180910390fd5b6103ac33620f424061072c565b6001600560003373ffffffffffffffffffffffffffffffffffffffff1673ffffffffffffffffffffffffffffffffffffffff16815260200190815260200160002060006101000a81548160ff021916908315150217905550565b60008060008373ffffffffffffffffffffffffffffffffffffffff1673ffffffffffffffffffffffffffffffffffffffff168152602001908152602001600020549050919050565b60606004805461045d90610ebb565b80601f016020809104026020016040519081016040528092919081815260200182805461048990610ebb565b80156104d65780601f106104ab576101008083540402835291602001916104d6565b820191906000526020600020905b8154815290600101906020018083116104b957829003601f168201915b5050505050905090565b6000806104eb61058a565b90506104f8818585610638565b600191505092915050565b6000600160008473ffffffffffffffffffffffffffffffffffffffff1673ffffffffffffffffffffffffffffffffffffffff16815260200190815260200160002060008373ffffffffffffffffffffffffffffffffffffffff1673ffffffffffffffffffffffffffffffffffffffff16815260200190815260200160002054905092915050565b600033905090565b61059f83838360016107ae565b505050565b60006105b08484610503565b90507fffffffffffffffffffffffffffffffffffffffffffffffffffffffffffffffff81146106325781811015610622578281836040517ffb8f41b200000000000000000000000000000000000000000000000000000000815260040161061993929190610f8d565b60405180910390fd5b610631848484840360006107ae565b5b50505050565b600073ffffffffffffffffffffffffffffffffffffffff168373ffffffffffffffffffffffffffffffffffffffff16036106aa5760006040517f96c6fd1e0000000000000000000000000000000000000000000000000000000081526004016106a19190610fc4565b60405180910390fd5b600073ffffffffffffffffffffffffffffffffffffffff168273ffffffffffffffffffffffffffffffffffffffff160361071c5760006040517fec442f050000000000000000000000000000000000000000000000000000000081526004016107139190610fc4565b60405180910390fd5b610727838383610985565b505050565b600073ffffffffffffffffffffffffffffffffffffffff168273ffffffffffffffffffffffffffffffffffffffff160361079e5760006040517fec442f050000000000000000000000000000000000000000000000000000000081526004016107959190610fc4565b60405180910390fd5b6107aa60008383610985565b5050565b600073ffffffffffffffffffffffffffffffffffffffff168473ffffffffffffffffffffffffffffffffffffffff16036108205760006040517fe602df050000000000000000000000000000000000000000000000000000000081526004016108179190610fc4565b60405180910390fd5b600073ffffffffffffffffffffffffffffffffffffffff168373ffffffffffffffffffffffffffffffffffffffff16036108925760006040517f94280d620000000000000000000000000000000000000000000000000000000081526004016108899190610fc4565b60405180910390fd5b81600160008673ffffffffffffffffffffffffffffffffffffffff1673ffffffffffffffffffffffffffffffffffffffff16815260200190815260200160002060008573ffffffffffffffffffffffffffffffffffffffff1673ffffffffffffffffffffffffffffffffffffffff16815260200190815260200160002081905550801561097f578273ffffffffffffffffffffffffffffffffffffffff168473ffffffffffffffffffffffffffffffffffffffff167f8c5be1e5ebec7d5bd14f71427d1e84f3dd0314c0f7b2291e5b200ac8c7c3b925846040516109769190610d7a565b60405180910390a35b50505050565b600073ffffffffffffffffffffffffffffffffffffffff168373ffffffffffffffffffffffffffffffffffffffff16036109d75780600260008282546109cb919061100e565b92505081905550610aaa565b60008060008573ffffffffffffffffffffffffffffffffffffffff1673ffffffffffffffffffffffffffffffffffffffff16815260200190815260200160002054905081811015610a63578381836040517fe450d38c000000000000000000000000000000000000000000000000000000008152600401610a5a93929190610f8d565b60405180910390fd5b8181036000808673ffffffffffffffffffffffffffffffffffffffff1673ffffffffffffffffffffffffffffffffffffffff16815260200190815260200160002081905550505b600073ffffffffffffffffffffffffffffffffffffffff168273ffffffffffffffffffffffffffffffffffffffff1603610af35780600260008282540392505081905550610b40565b806000808473ffffffffffffffffffffffffffffffffffffffff1673ffffffffffffffffffffffffffffffffffffffff168152602001908152602001600020600082825401925050819055505b8173ffffffffffffffffffffffffffffffffffffffff168373ffffffffffffffffffffffffffffffffffffffff167fddf252ad1be2c89b69c2b068fc378daa952ba7f163c4a11628f55a4df523b3ef83604051610b9d9190610d7a565b60405180910390a3505050565b600081519050919050565b600082825260208201905092915050565b60005b83811015610be4578082015181840152602081019050610bc9565b60008484015250505050565b6000601f19601f8301169050919050565b6000610c0c82610baa565b610c168185610bb5565b9350610c26818560208601610bc6565b610c2f81610bf0565b840191505092915050565b60006020820190508181036000830152610c548184610c01565b905092915050565b600080fd5b600073ffffffffffffffffffffffffffffffffffffffff82169050919050565b6000610c8c82610c61565b9050919050565b610c9c81610c81565b8114610ca757600080fd5b50565b600081359050610cb981610c93565b92915050565b6000819050919050565b610cd281610cbf565b8114610cdd57600080fd5b50565b600081359050610cef81610cc9565b92915050565b60008060408385031215610d0c57610d0b610c5c565b5b6000610d1a85828601610caa565b9250506020610d2b85828601610ce0565b9150509250929050565b60008115159050919050565b610d4a81610d35565b82525050565b6000602082019050610d656000830184610d41565b92915050565b610d7481610cbf565b82525050565b6000602082019050610d8f6000830184610d6b565b92915050565b600080600060608486031215610dae57610dad610c5c565b5b6000610dbc86828701610caa565b9350506020610dcd86828701610caa565b9250506040610dde86828701610ce0565b9150509250925092565b600060ff82169050919050565b610dfe81610de8565b82525050565b6000602082019050610e196000830184610df5565b92915050565b600060208284031215610e3557610e34610c5c565b5b6000610e4384828501610caa565b91505092915050565b60008060408385031215610e6357610e62610c5c565b5b6000610e7185828601610caa565b9250506020610e8285828601610caa565b9150509250929050565b7f4e487b7100000000000000000000000000000000000000000000000000000000600052602260045260246000fd5b60006002820490506001821680610ed357607f821691505b602082108103610ee657610ee5610e8c565b5b50919050565b7f5468697320757365722068617320636c61696d65642061697264726f7020616c60008201527f7265616479000000000000000000000000000000000000000000000000000000602082015250565b6000610f48602583610bb5565b9150610f5382610eec565b604082019050919050565b60006020820190508181036000830152610f7781610f3b565b9050919050565b610f8781610c81565b82525050565b6000606082019050610fa26000830186610f7e565b610faf6020830185610d6b565b610fbc6040830184610d6b565b949350505050565b6000602082019050610fd96000830184610f7e565b92915050565b7f4e487b7100000000000000000000000000000000000000000000000000000000600052601160045260246000fd5b600061101982610cbf565b915061102483610cbf565b925082820190508082111561103c5761103b610fdf565b5b9291505056fea26469706673582212202ff90da63e64d1adc2c5b151c3443093c1b511bf5f9438a075b241a80a4cdfd264736f6c63430008140033",
  "linkReferences": {},
  "deployedLinkReferences": {}
}